:060000000A128A11142906
:10000800F000030EF1000B1865200B1923200313D1
:1000180083120C18192003138312031383128C10F4
:10002800710E8300F00E700E090003138312D30AB9
:10003800D40AD50A8F2388229722A522080089236B
:10004800880120183528A0183B2820194128A01914
:100058004728201A4D28A01A5328201B5928A01BCE
:100068005F282508870008142010A0140800260817
:1000780087008814A0102015080027088700081595
:100088002011A0150800280887008815A01120163F
:1000980008002908870008162012A01608002A0858
:1000A80087008816A012201708002B088700081759
:1000B8002013A01708002C0887008817A013201405
:1000C800080003138312061C8921861C2822061D9A
:0600D80031220B100800AC
:100200008A010A140F3982073F3406345B344F34B5
:1002100066346D347D3407347F346F3477347C3406
:1002200039345E34793471340317831688018901B7
:1002300003138316003085000614861406158611F4
:1002400006128612061386138113151495141515BC
:1002500000308700003088004F218021592103138E
:10026000831285018601870188010F30AE000F30AF
:10027000B2001F30B3000A30B9000F30BA000F309F
:10028000BB000F30BC000130C000AF01B0019221B3
:100290000E226D22722277228122B3224529031376
:1002A00083161614961416150313831206080B10E2
:1002B0000800031383160F178F120F160F14031362
:1002C00083128B178B160B11031383168C140C14CB
:1002D000031383128C100C100313831681128111E7
:1002E000011481140115892303138312901610162B
:1002F000901010148F23031383124E3092000800C5
:100300008B178B150B108B160B110C100C140B1775
:100310000800B70A031105303702031D9629003083
:10032000B70008009621A921BC210800AF01B00147
:1003300003102E08B1000A30B00AB10203189C293C
:10034000B003B10730080021A50031080021A60044
:100350000800AF01B00103103208B1000A30B00A42
:10036000B1020318AF29B003B10730080021A7007C
:1003700031080021A8000800AF01B00103103308C4
:10038000B1000A30B00AB1020318C229B003B107A4
:1003900030080021A90031080021AA000800AF019F
:1003A000B00103103908B1000A30B00AB1020318D5
:1003B000D529B003B10730080021AB003108002176
:1003C000AC003908C1000800AF01B00103103908C2
:1003D000B1000A30B00AB1020318EA29B003B1072C
:1003E00030080021AB0031080021AC003908C20000
:1003F0000800AF01B00103103908B1000A30B00A9B
:10040000B1020318FF29B003B10730080021AB0087
:1004100031080021AC003908C30008000311013085
:1004200037020319232203110230370203193A223B
:1004300003110330370203193F220311043037023E
:10044000031944220800861606138613CF210800DC
:10045000B90A031115303902031D352A0A30B900D3
:100460000800B903031109303902031D3E2A143074
:10047000B9000800861206178613E42108008612C8
:1004800006138617F9210800861606178617861C9C
:100490004C22061D66220800BA01BB01BC01D30133
:1004A000D401D501CD01581083014408AE004508A0
:1004B000B2004608B3004108BA004208BB00430836
:1004C000BC007730AB003930AC000800B701AB019D
:1004D000AC0186120613861308003B083C07400750
:1004E000BD0008003A083C074007BE0008003A0873
:1004F0003B074007BF00080040083302C700470819
:1005000008003A08C4003A08C5003F08C6000800C1
:10051000AE030311FF302E02031D952A0130B406ED
:100520003D08AE0034183A08AE002E080800B203A9
:100530000311FF303202031DA42A0130B5063E0824
:10054000B200351C3B08B2000800B3030311FF30B2
:100550003302031DB22A0130B6063F08B300361C31
:100560003C08B30008004D18DB2ACD18F02A4D19BD
:10057000FC2ACD19152B4D1A2A2BCD1A362B4D1BC3
:100580004F2BCD1B642B5818702B051085100515AB
:1005900085150512851205178513061203113A08F1
:1005A000D0000530D0025008D2005308D002031DFD
:1005B000DA2A4D140800031105150530CB00F83078
:1005C000CC00CC0BE12ACB0BE22A0511852349088C
:1005D000D1005308D102031DEF2A4D10CD1408009D
:1005E0000311851481234908D6005308D602031D40
:1005F000FB2ACD104D150800051485100511851135
:100600000512851605178513061203113B08D00045
:10061000FF30D0020A30D0075008D2005408D00270
:10062000031D142B4D11CD1508000311851605303F
:10063000CB00F830CC00CC0B1B2BCB0B1C2B85122A
:1006400085234908D1005408D102031D2F2BCD1159
:100650004D1608000311051681234908D6005408D9
:10066000D602031D352B4D12CD160800051485103A
:10067000051185150512851205138513061603113C
:100680003C08D000FF30D0021930D0075008D2000B
:100690005508D002031D4E2BCD124D170800031133
:1006A00006160530CB00F830CC00CC0B552BCB0B0D
:1006B000562B06127D234908D1005508D102031D8F
:1006C000692B4D13CD1708000311851779234908AD
:1006D000D6005508D602031D6F2BCD135814080001
:1006E000D301D401D501C901D201CD015810830134
:1006F000080007305207C900080004305207C9003B
:10070000080006305207C900080003305207C9002C
:10071000080003138312F53081000B110800031346
:0E0720008312DC308E000B308F000C100800AE
:04400E00C430FF3F7C
:00000001FF
