:060000000A128A11142906
:10000800F000030EF1000B1862200B1920200313D7
:1000180083120C18192003138312031383128C10F4
:10002800710E8300F00E700E090003138312A922CB
:100038007922872295220800A322880120183228D5
:10004800A018382820193E28A0194428201A4A2820
:10005800A01A5028201B5628A01B5C2825088700BA
:1000680008142010A0140800260887008814A0107F
:10007800201508002708870008152011A01508007A
:10008800280887008815A01120160800290887006D
:1000980008162012A01608002A0887008816A01241
:1000A800201708002B08870008172013A01708003E
:1000B8002C0887008817A013201408000313831244
:1000C800061C8821861C2722061D30220B100800DA
:100200008A010A140F3982073F3406345B344F34B5
:1002100066346D347D3407347F346F3477347C3406
:1002200039345E34793471340317831688018901B7
:1002300003138316003085000614861406158611F4
:1002400006128612061386138113151495141515BC
:1002500000308700003088004E217F215821031391
:10026000831285018601870188010F30AE000F30AF
:10027000B2001F30B3000A30B9000F30BA000F309F
:10028000BB000F30BC000130C000AF01B0019121B4
:100290000D22612266226B227022452903138316E8
:1002A0001614961416150313831206080B10080073
:1002B000031383160F178F120F160F1403138312D5
:1002C0008B178B160B11031383168C140C1403134A
:1002D00083128C100C1003138316811281110114E8
:1002E00081140115A3220313831290161016901087
:1002F0001014A922031383124E30920008008B17AA
:100300008B150B108B160B110C100C140B1708000F
:10031000B70A031105303702031D95290030B700D5
:1003200008009521A821BB210800AF01B0010310EE
:100330002E08B1000A30B00AB10203189B29B0039D
:10034000B10730080021A50031080021A6000800EF
:10035000AF01B00103103208B1000A30B00AB10297
:100360000318AE29B003B10730080021A7003108F7
:100370000021A8000800AF01B00103103308B1004C
:100380000A30B00AB1020318C129B003B10730081E
:100390000021A90031080021AA000800AF01B00126
:1003A00003103908B1000A30B00AB1020318D42989
:1003B000B003B10730080021AB0031080021AC00C8
:1003C0003908C1000800AF01B00103103908B100BD
:1003D0000A30B00AB1020318E929B003B1073008A6
:1003E0000021AB0031080021AC003908C200080030
:1003F000AF01B00103103908B1000A30B00AB102F0
:100400000318FE29B003B10730080021AB00310802
:100410000021AC003908C300080003110130370285
:100420000319222203110230370203193922031162
:100430000330370203193E22031104303702031937
:1004400043220800861606138613CE210800B90A37
:10045000031115303902031D342A0A30B90008008F
:10046000B903031109303902031D3D2A1430B900C4
:100470000800861206178613E32108008612061369
:100480008617F8210800861606178617861C4B2249
:10049000061D5922080074224408B2004508AE0027
:1004A0004608B3004108BA004208BB004308BC003C
:1004B0000800B701AB01AC01912186120613861327
:1004C00008003B083C074007BD0008003A083C070D
:1004D0004007BE0008003A083B074007BF0008007D
:1004E0003A084007C4000800BB08C500BC08C600A5
:1004F0000800AE030311FF302E02031D862A0130CF
:10050000B4063A08AE0034183D08AE000800B20345
:100510000311FF303202031D942A0130B5063E0854
:10052000B200351C3B08B2000800B3030311FF30D2
:100530003302031DA22A0130B6063C08B300361C64
:100540003F08B300080003138312F53081000B113C
:10055000080003138312DC308E000B308F000C1068
:02056000080091
:04400E00C430FF3F7C
:00000001FF
